{
  "_format": "hh-sol-artifact-1",
  "contractName": "DynamicSvgNft",
  "sourceName": "contracts/DynamicSvgNft.sol",
  "abi": [
    {
      "inputs": [
        {
          "internalType": "address",
          "name": "priceFeedAddress",
          "type": "address"
        },
        {
          "internalType": "string",
          "name": "lowSvg",
          "type": "string"
        },
        {
          "internalType": "string",
          "name": "highSvg",
          "type": "string"
        }
      ],
      "stateMutability": "nonpayable",
      "type": "constructor"
    },
    {
      "anonymous": false,
      "inputs": [
        {
          "indexed": true,
          "internalType": "address",
          "name": "owner",
          "type": "address"
        },
        {
          "indexed": true,
          "internalType": "address",
          "name": "approved",
          "type": "address"
        },
        {
          "indexed": true,
          "internalType": "uint256",
          "name": "tokenId",
          "type": "uint256"
        }
      ],
      "name": "Approval",
      "type": "event"
    },
    {
      "anonymous": false,
      "inputs": [
        {
          "indexed": true,
          "internalType": "address",
          "name": "owner",
          "type": "address"
        },
        {
          "indexed": true,
          "internalType": "address",
          "name": "operator",
          "type": "address"
        },
        {
          "indexed": false,
          "internalType": "bool",
          "name": "approved",
          "type": "bool"
        }
      ],
      "name": "ApprovalForAll",
      "type": "event"
    },
    {
      "anonymous": false,
      "inputs": [
        {
          "indexed": true,
          "internalType": "uint256",
          "name": "tokenId",
          "type": "uint256"
        },
        {
          "indexed": false,
          "internalType": "int256",
          "name": "highValue",
          "type": "int256"
        }
      ],
      "name": "CreateNft",
      "type": "event"
    },
    {
      "anonymous": false,
      "inputs": [
        {
          "indexed": true,
          "internalType": "address",
          "name": "from",
          "type": "address"
        },
        {
          "indexed": true,
          "internalType": "address",
          "name": "to",
          "type": "address"
        },
        {
          "indexed": true,
          "internalType": "uint256",
          "name": "tokenId",
          "type": "uint256"
        }
      ],
      "name": "Transfer",
      "type": "event"
    },
    {
      "inputs": [
        {
          "internalType": "address",
          "name": "to",
          "type": "address"
        },
        {
          "internalType": "uint256",
          "name": "tokenId",
          "type": "uint256"
        }
      ],
      "name": "approve",
      "outputs": [],
      "stateMutability": "nonpayable",
      "type": "function"
    },
    {
      "inputs": [
        {
          "internalType": "address",
          "name": "owner",
          "type": "address"
        }
      ],
      "name": "balanceOf",
      "outputs": [
        {
          "internalType": "uint256",
          "name": "",
          "type": "uint256"
        }
      ],
      "stateMutability": "view",
      "type": "function"
    },
    {
      "inputs": [
        {
          "internalType": "uint256",
          "name": "tokenId",
          "type": "uint256"
        }
      ],
      "name": "getApproved",
      "outputs": [
        {
          "internalType": "address",
          "name": "",
          "type": "address"
        }
      ],
      "stateMutability": "view",
      "type": "function"
    },
    {
      "inputs": [
        {
          "internalType": "address",
          "name": "owner",
          "type": "address"
        },
        {
          "internalType": "address",
          "name": "operator",
          "type": "address"
        }
      ],
      "name": "isApprovedForAll",
      "outputs": [
        {
          "internalType": "bool",
          "name": "",
          "type": "bool"
        }
      ],
      "stateMutability": "view",
      "type": "function"
    },
    {
      "inputs": [
        {
          "internalType": "int256",
          "name": "highValue",
          "type": "int256"
        }
      ],
      "name": "mintNft",
      "outputs": [],
      "stateMutability": "nonpayable",
      "type": "function"
    },
    {
      "inputs": [],
      "name": "name",
      "outputs": [
        {
          "internalType": "string",
          "name": "",
          "type": "string"
        }
      ],
      "stateMutability": "view",
      "type": "function"
    },
    {
      "inputs": [
        {
          "internalType": "uint256",
          "name": "tokenId",
          "type": "uint256"
        }
      ],
      "name": "ownerOf",
      "outputs": [
        {
          "internalType": "address",
          "name": "",
          "type": "address"
        }
      ],
      "stateMutability": "view",
      "type": "function"
    },
    {
      "inputs": [
        {
          "internalType": "uint256",
          "name": "",
          "type": "uint256"
        }
      ],
      "name": "s_tokenIdHighValue",
      "outputs": [
        {
          "internalType": "int256",
          "name": "",
          "type": "int256"
        }
      ],
      "stateMutability": "view",
      "type": "function"
    },
    {
      "inputs": [
        {
          "internalType": "address",
          "name": "from",
          "type": "address"
        },
        {
          "internalType": "address",
          "name": "to",
          "type": "address"
        },
        {
          "internalType": "uint256",
          "name": "tokenId",
          "type": "uint256"
        }
      ],
      "name": "safeTransferFrom",
      "outputs": [],
      "stateMutability": "nonpayable",
      "type": "function"
    },
    {
      "inputs": [
        {
          "internalType": "address",
          "name": "from",
          "type": "address"
        },
        {
          "internalType": "address",
          "name": "to",
          "type": "address"
        },
        {
          "internalType": "uint256",
          "name": "tokenId",
          "type": "uint256"
        },
        {
          "internalType": "bytes",
          "name": "data",
          "type": "bytes"
        }
      ],
      "name": "safeTransferFrom",
      "outputs": [],
      "stateMutability": "nonpayable",
      "type": "function"
    },
    {
      "inputs": [
        {
          "internalType": "address",
          "name": "operator",
          "type": "address"
        },
        {
          "internalType": "bool",
          "name": "approved",
          "type": "bool"
        }
      ],
      "name": "setApprovalForAll",
      "outputs": [],
      "stateMutability": "nonpayable",
      "type": "function"
    },
    {
      "inputs": [
        {
          "internalType": "bytes4",
          "name": "interfaceId",
          "type": "bytes4"
        }
      ],
      "name": "supportsInterface",
      "outputs": [
        {
          "internalType": "bool",
          "name": "",
          "type": "bool"
        }
      ],
      "stateMutability": "view",
      "type": "function"
    },
    {
      "inputs": [
        {
          "internalType": "string",
          "name": "svg",
          "type": "string"
        }
      ],
      "name": "svgToImageURI",
      "outputs": [
        {
          "internalType": "string",
          "name": "",
          "type": "string"
        }
      ],
      "stateMutability": "pure",
      "type": "function"
    },
    {
      "inputs": [],
      "name": "symbol",
      "outputs": [
        {
          "internalType": "string",
          "name": "",
          "type": "string"
        }
      ],
      "stateMutability": "view",
      "type": "function"
    },
    {
      "inputs": [
        {
          "internalType": "uint256",
          "name": "tokenId",
          "type": "uint256"
        }
      ],
      "name": "tokenURI",
      "outputs": [
        {
          "internalType": "string",
          "name": "",
          "type": "string"
        }
      ],
      "stateMutability": "view",
      "type": "function"
    },
    {
      "inputs": [
        {
          "internalType": "address",
          "name": "from",
          "type": "address"
        },
        {
          "internalType": "address",
          "name": "to",
          "type": "address"
        },
        {
          "internalType": "uint256",
          "name": "tokenId",
          "type": "uint256"
        }
      ],
      "name": "transferFrom",
      "outputs": [],
      "stateMutability": "nonpayable",
      "type": "function"
    }
  ],
  "bytecode": "0x60a06040523480156200001157600080fd5b506040516200380538038062003805833981810160405281019062000037919062000655565b6040518060400160405280600f81526020017f44796e616d696320535647204e465400000000000000000000000000000000008152506040518060400160405280600381526020017f44534e00000000000000000000000000000000000000000000000000000000008152508160009080519060200190620000bb929190620003a3565b508060019080519060200190620000d4929190620003a3565b5050506000600681905550620000f0826200017160201b60201c565b6007908051906020019062000107929190620003a3565b5062000119816200017160201b60201c565b6008908051906020019062000130929190620003a3565b508273ffffffffffffffffffffffffffffffffffffffff1660808173ffffffffffffffffffffffffffffffffffffffff1660601b8152505050505062000940565b606060006040518060400160405280601a81526020017f646174613a696d6167652f7376672b786d6c3b6261736536342c00000000000081525090506000620001e684604051602001620001c691906200073c565b6040516020818303038152906040526200021560201b62000d441760201c565b90508181604051602001620001fd92919062000755565b60405160208183030381529060405292505050919050565b60606000825114156200023a576040518060200160405280600081525090506200039e565b6000604051806060016040528060408152602001620037c560409139905060006003600285516200026c9190620007b6565b62000278919062000842565b60046200028691906200087a565b90506000602082620002999190620007b6565b67ffffffffffffffff811115620002b557620002b4620004e7565b5b6040519080825280601f01601f191660200182016040528015620002e85781602001600182028036833780820191505090505b509050818152600183018586518101602084015b8183101562000359576003830192508251603f8160121c168501518253600182019150603f81600c1c168501518253600182019150603f8160061c168501518253600182019150603f8116850151825360018201915050620002fc565b600389510660018114620003765760028114620003875762000392565b613d3d60f01b600283035262000392565b603d60f81b60018303525b50505050508093505050505b919050565b828054620003b1906200090a565b90600052602060002090601f016020900481019282620003d5576000855562000421565b82601f10620003f057805160ff191683800117855562000421565b8280016001018555821562000421579182015b828111156200042057825182559160200191906001019062000403565b5b50905062000430919062000434565b5090565b5b808211156200044f57600081600090555060010162000435565b5090565b6000604051905090565b600080fd5b600080fd5b600073ffffffffffffffffffffffffffffffffffffffff82169050919050565b6000620004948262000467565b9050919050565b620004a68162000487565b8114620004b257600080fd5b50565b600081519050620004c6816200049b565b92915050565b600080fd5b600080fd5b6000601f19601f8301169050919050565b7f4e487b7100000000000000000000000000000000000000000000000000000000600052604160045260246000fd5b6200052182620004d6565b810181811067ffffffffffffffff82111715620005435762000542620004e7565b5b80604052505050565b60006200055862000453565b905062000566828262000516565b919050565b600067ffffffffffffffff821115620005895762000588620004e7565b5b6200059482620004d6565b9050602081019050919050565b60005b83811015620005c1578082015181840152602081019050620005a4565b83811115620005d1576000848401525b50505050565b6000620005ee620005e8846200056b565b6200054c565b9050828152602081018484840111156200060d576200060c620004d1565b5b6200061a848285620005a1565b509392505050565b600082601f8301126200063a5762000639620004cc565b5b81516200064c848260208601620005d7565b91505092915050565b6000806000606084860312156200067157620006706200045d565b5b60006200068186828701620004b5565b935050602084015167ffffffffffffffff811115620006a557620006a462000462565b5b620006b38682870162000622565b925050604084015167ffffffffffffffff811115620006d757620006d662000462565b5b620006e58682870162000622565b9150509250925092565b600081519050919050565b600081905092915050565b60006200071282620006ef565b6200071e8185620006fa565b935062000730818560208601620005a1565b80840191505092915050565b60006200074a828462000705565b915081905092915050565b600062000763828562000705565b915062000771828462000705565b91508190509392505050565b6000819050919050565b7f4e487b7100000000000000000000000000000000000000000000000000000000600052601160045260246000fd5b6000620007c3826200077d565b9150620007d0836200077d565b9250827fffffffffffffffffffffffffffffffffffffffffffffffffffffffffffffffff0382111562000808576200080762000787565b5b828201905092915050565b7f4e487b7100000000000000000000000000000000000000000000000000000000600052601260045260246000fd5b60006200084f826200077d565b91506200085c836200077d565b9250826200086f576200086e62000813565b5b828204905092915050565b600062000887826200077d565b915062000894836200077d565b9250817fffffffffffffffffffffffffffffffffffffffffffffffffffffffffffffffff0483118215151615620008d057620008cf62000787565b5b828202905092915050565b7f4e487b7100000000000000000000000000000000000000000000000000000000600052602260045260246000fd5b600060028204905060018216806200092357607f821691505b602082108114156200093a5762000939620008db565b5b50919050565b60805160601c612e666200095f6000396000610a5d0152612e666000f3fe608060405234801561001057600080fd5b50600436106101005760003560e01c80636352211e11610097578063b88d4fde11610066578063b88d4fde146102bd578063c87b56dd146102d9578063e12f64b514610309578063e985e9c51461033957610100565b80636352211e1461022357806370a082311461025357806395d89b4114610283578063a22cb465146102a157610100565b80631e930812116100d35780631e9308121461019f57806323b872dd146101bb57806330d871c6146101d757806342842e0e1461020757610100565b806301ffc9a71461010557806306fdde0314610135578063081812fc14610153578063095ea7b314610183575b600080fd5b61011f600480360381019061011a9190611b0f565b610369565b60405161012c9190611b57565b60405180910390f35b61013d61044b565b60405161014a9190611c0b565b60405180910390f35b61016d60048036038101906101689190611c63565b6104dd565b60405161017a9190611cd1565b60405180910390f35b61019d60048036038101906101989190611d18565b610523565b005b6101b960048036038101906101b49190611d8e565b61063b565b005b6101d560048036038101906101d09190611dbb565b6106b3565b005b6101f160048036038101906101ec9190611f43565b610713565b6040516101fe9190611c0b565b60405180910390f35b610221600480360381019061021c9190611dbb565b6107a6565b005b61023d60048036038101906102389190611c63565b6107c6565b60405161024a9190611cd1565b60405180910390f35b61026d60048036038101906102689190611f8c565b61084d565b60405161027a9190611fc8565b60405180910390f35b61028b610905565b6040516102989190611c0b565b60405180910390f35b6102bb60048036038101906102b6919061200f565b610997565b005b6102d760048036038101906102d291906120f0565b6109ad565b005b6102f360048036038101906102ee9190611c63565b610a0f565b6040516103009190611c0b565b60405180910390f35b610323600480360381019061031e9190611c63565b610c98565b6040516103309190612182565b60405180910390f35b610353600480360381019061034e919061219d565b610cb0565b6040516103609190611b57565b60405180910390f35b60007f80ac58cd000000000000000000000000000000000000000000000000000000007bffffffffffffffffffffffffffffffffffffffffffffffffffffffff1916827bffffffffffffffffffffffffffffffffffffffffffffffffffffffff1916148061043457507f5b5e139f000000000000000000000000000000000000000000000000000000007bffffffffffffffffffffffffffffffffffffffffffffffffffffffff1916827bffffffffffffffffffffffffffffffffffffffffffffffffffffffff1916145b80610444575061044382610ebd565b5b9050919050565b60606000805461045a9061220c565b80601f01602080910402602001604051908101604052809291908181526020018280546104869061220c565b80156104d35780601f106104a8576101008083540402835291602001916104d3565b820191906000526020600020905b8154815290600101906020018083116104b657829003601f168201915b5050505050905090565b60006104e882610f27565b6004600083815260200190815260200160002060009054906101000a900473ffffffffffffffffffffffffffffffffffffffff169050919050565b600061052e826107c6565b90508073ffffffffffffffffffffffffffffffffffffffff168373ffffffffffffffffffffffffffffffffffffffff16141561059f576040517f08c379a0000000000000000000000000000000000000000000000000000000008152600401610596906122b0565b60405180910390fd5b8073ffffffffffffffffffffffffffffffffffffffff166105be610f72565b73ffffffffffffffffffffffffffffffffffffffff1614806105ed57506105ec816105e7610f72565b610cb0565b5b61062c576040517f08c379a000000000000000000000000000000000000000000000000000000000815260040161062390612342565b60405180910390fd5b6106368383610f7a565b505050565b806009600060065481526020019081526020016000208190555061066133600654611033565b60016006546106709190612391565b6006819055506006547f3431855aa1e5d3c46426c18bf530200c661b04a7f8c56945fbc40a94980ed0c4826040516106a89190612182565b60405180910390a250565b6106c46106be610f72565b82611051565b610703576040517f08c379a00000000000000000000000000000000000000000000000000000000081526004016106fa90612459565b60405180910390fd5b61070e8383836110e6565b505050565b606060006040518060400160405280601a81526020017f646174613a696d6167652f7376672b786d6c3b6261736536342c000000000000815250905060006107798460405160200161076591906124b5565b604051602081830303815290604052610d44565b9050818160405160200161078e9291906124cc565b60405160208183030381529060405292505050919050565b6107c1838383604051806020016040528060008152506109ad565b505050565b6000806107d2836113e0565b9050600073ffffffffffffffffffffffffffffffffffffffff168173ffffffffffffffffffffffffffffffffffffffff161415610844576040517f08c379a000000000000000000000000000000000000000000000000000000000815260040161083b9061253c565b60405180910390fd5b80915050919050565b60008073ffffffffffffffffffffffffffffffffffffffff168273ffffffffffffffffffffffffffffffffffffffff1614156108be576040517f08c379a00000000000000000000000000000000000000000000000000000000081526004016108b5906125ce565b60405180910390fd5b600360008373ffffffffffffffffffffffffffffffffffffffff1673ffffffffffffffffffffffffffffffffffffffff168152602001908152602001600020549050919050565b6060600180546109149061220c565b80601f01602080910402602001604051908101604052809291908181526020018280546109409061220c565b801561098d5780601f106109625761010080835404028352916020019161098d565b820191906000526020600020905b81548152906001019060200180831161097057829003601f168201915b5050505050905090565b6109a96109a2610f72565b838361141d565b5050565b6109be6109b8610f72565b83611051565b6109fd576040517f08c379a00000000000000000000000000000000000000000000000000000000081526004016109f490612459565b60405180910390fd5b610a098484848461158a565b50505050565b6060610a1a826115e6565b610a59576040517f08c379a0000000000000000000000000000000000000000000000000000000008152600401610a509061263a565b60405180910390fd5b60007f000000000000000000000000000000000000000000000000000000000000000073ffffffffffffffffffffffffffffffffffffffff1663feaf968c6040518163ffffffff1660e01b815260040160a06040518083038186803b158015610ac157600080fd5b505afa158015610ad5573d6000803e3d6000fd5b505050506040513d601f19601f82011682018060405250810190610af991906126c6565b505050915050600060078054610b0e9061220c565b80601f0160208091040260200160405190810160405280929190818152602001828054610b3a9061220c565b8015610b875780601f10610b5c57610100808354040283529160200191610b87565b820191906000526020600020905b815481529060010190602001808311610b6a57829003601f168201915b5050505050905060096000858152602001908152602001600020548212610c365760088054610bb59061220c565b80601f0160208091040260200160405190810160405280929190818152602001828054610be19061220c565b8015610c2e5780601f10610c0357610100808354040283529160200191610c2e565b820191906000526020600020905b815481529060010190602001808311610c1157829003601f168201915b505050505090505b610c3e611627565b610c6f610c4961044b565b83604051602001610c5b929190612909565b604051602081830303815290604052610d44565b604051602001610c809291906124cc565b60405160208183030381529060405292505050919050565b60096020528060005260406000206000915090505481565b6000600560008473ffffffffffffffffffffffffffffffffffffffff1673ffffffffffffffffffffffffffffffffffffffff16815260200190815260200160002060008373ffffffffffffffffffffffffffffffffffffffff1673ffffffffffffffffffffffffffffffffffffffff16815260200190815260200160002060009054906101000a900460ff16905092915050565b6060600082511415610d6757604051806020016040528060008152509050610eb8565b6000604051806060016040528060408152602001612df16040913990506000600360028551610d969190612391565b610da09190612988565b6004610dac91906129b9565b90506000602082610dbd9190612391565b67ffffffffffffffff811115610dd657610dd5611e18565b5b6040519080825280601f01601f191660200182016040528015610e085781602001600182028036833780820191505090505b509050818152600183018586518101602084015b81831015610e77576003830192508251603f8160121c168501518253600182019150603f81600c1c168501518253600182019150603f8160061c168501518253600182019150603f8116850151825360018201915050610e1c565b600389510660018114610e915760028114610ea157610eac565b613d3d60f01b6002830352610eac565b603d60f81b60018303525b50505050508093505050505b919050565b60007f01ffc9a7000000000000000000000000000000000000000000000000000000007bffffffffffffffffffffffffffffffffffffffffffffffffffffffff1916827bffffffffffffffffffffffffffffffffffffffffffffffffffffffff1916149050919050565b610f30816115e6565b610f6f576040517f08c379a0000000000000000000000000000000000000000000000000000000008152600401610f669061253c565b60405180910390fd5b50565b600033905090565b816004600083815260200190815260200160002060006101000a81548173ffffffffffffffffffffffffffffffffffffffff021916908373ffffffffffffffffffffffffffffffffffffffff160217905550808273ffffffffffffffffffffffffffffffffffffffff16610fed836107c6565b73ffffffffffffffffffffffffffffffffffffffff167f8c5be1e5ebec7d5bd14f71427d1e84f3dd0314c0f7b2291e5b200ac8c7c3b92560405160405180910390a45050565b61104d828260405180602001604052806000815250611664565b5050565b60008061105d836107c6565b90508073ffffffffffffffffffffffffffffffffffffffff168473ffffffffffffffffffffffffffffffffffffffff16148061109f575061109e8185610cb0565b5b806110dd57508373ffffffffffffffffffffffffffffffffffffffff166110c5846104dd565b73ffffffffffffffffffffffffffffffffffffffff16145b91505092915050565b8273ffffffffffffffffffffffffffffffffffffffff16611106826107c6565b73ffffffffffffffffffffffffffffffffffffffff161461115c576040517f08c379a000000000000000000000000000000000000000000000000000000000815260040161115390612a85565b60405180910390fd5b600073ffffffffffffffffffffffffffffffffffffffff168273ffffffffffffffffffffffffffffffffffffffff1614156111cc576040517f08c379a00000000000000000000000000000000000000000000000000000000081526004016111c390612b17565b60405180910390fd5b6111d983838360016116bf565b8273ffffffffffffffffffffffffffffffffffffffff166111f9826107c6565b73ffffffffffffffffffffffffffffffffffffffff161461124f576040517f08c379a000000000000000000000000000000000000000000000000000000000815260040161124690612a85565b60405180910390fd5b6004600082815260200190815260200160002060006101000a81549073ffffffffffffffffffffffffffffffffffffffff02191690556001600360008573ffffffffffffffffffffffffffffffffffffffff1673ffffffffffffffffffffffffffffffffffffffff168152602001908152602001600020600082825403925050819055506001600360008473ffffffffffffffffffffffffffffffffffffffff1673ffffffffffffffffffffffffffffffffffffffff16815260200190815260200160002060008282540192505081905550816002600083815260200190815260200160002060006101000a81548173ffffffffffffffffffffffffffffffffffffffff021916908373ffffffffffffffffffffffffffffffffffffffff160217905550808273ffffffffffffffffffffffffffffffffffffffff168473ffffffffffffffffffffffffffffffffffffffff167fddf252ad1be2c89b69c2b068fc378daa952ba7f163c4a11628f55a4df523b3ef60405160405180910390a46113db83838360016116c5565b505050565b60006002600083815260200190815260200160002060009054906101000a900473ffffffffffffffffffffffffffffffffffffffff169050919050565b8173ffffffffffffffffffffffffffffffffffffffff168373ffffffffffffffffffffffffffffffffffffffff16141561148c576040517f08c379a000000000000000000000000000000000000000000000000000000000815260040161148390612b83565b60405180910390fd5b80600560008573ffffffffffffffffffffffffffffffffffffffff1673ffffffffffffffffffffffffffffffffffffffff16815260200190815260200160002060008473ffffffffffffffffffffffffffffffffffffffff1673ffffffffffffffffffffffffffffffffffffffff16815260200190815260200160002060006101000a81548160ff0219169083151502179055508173ffffffffffffffffffffffffffffffffffffffff168373ffffffffffffffffffffffffffffffffffffffff167f17307eab39ab6107e8899845ad3d59bd9653f200f220920489ca2b5937696c318360405161157d9190611b57565b60405180910390a3505050565b6115958484846110e6565b6115a1848484846116cb565b6115e0576040517f08c379a00000000000000000000000000000000000000000000000000000000081526004016115d790612c15565b60405180910390fd5b50505050565b60008073ffffffffffffffffffffffffffffffffffffffff16611608836113e0565b73ffffffffffffffffffffffffffffffffffffffff1614159050919050565b60606040518060400160405280601d81526020017f646174613a6170706c69636174696f6e2f6a736f6e3b6261736536342c000000815250905090565b61166e8383611862565b61167b60008484846116cb565b6116ba576040517f08c379a00000000000000000000000000000000000000000000000000000000081526004016116b190612c15565b60405180910390fd5b505050565b50505050565b50505050565b60006116ec8473ffffffffffffffffffffffffffffffffffffffff16611a80565b15611855578373ffffffffffffffffffffffffffffffffffffffff1663150b7a02611715610f72565b8786866040518563ffffffff1660e01b81526004016117379493929190612c8a565b602060405180830381600087803b15801561175157600080fd5b505af192505050801561178257506040513d601f19601f8201168201806040525081019061177f9190612ceb565b60015b611805573d80600081146117b2576040519150601f19603f3d011682016040523d82523d6000602084013e6117b7565b606091505b506000815114156117fd576040517f08c379a00000000000000000000000000000000000000000000000000000000081526004016117f490612c15565b60405180910390fd5b805181602001fd5b63150b7a0260e01b7bffffffffffffffffffffffffffffffffffffffffffffffffffffffff1916817bffffffffffffffffffffffffffffffffffffffffffffffffffffffff19161491505061185a565b600190505b949350505050565b600073ffffffffffffffffffffffffffffffffffffffff168273ffffffffffffffffffffffffffffffffffffffff1614156118d2576040517f08c379a00000000000000000000000000000000000000000000000000000000081526004016118c990612d64565b60405180910390fd5b6118db816115e6565b1561191b576040517f08c379a000000000000000000000000000000000000000000000000000000000815260040161191290612dd0565b60405180910390fd5b6119296000838360016116bf565b611932816115e6565b15611972576040517f08c379a000000000000000000000000000000000000000000000000000000000815260040161196990612dd0565b60405180910390fd5b6001600360008473ffffffffffffffffffffffffffffffffffffffff1673ffffffffffffffffffffffffffffffffffffffff16815260200190815260200160002060008282540192505081905550816002600083815260200190815260200160002060006101000a81548173ffffffffffffffffffffffffffffffffffffffff021916908373ffffffffffffffffffffffffffffffffffffffff160217905550808273ffffffffffffffffffffffffffffffffffffffff16600073ffffffffffffffffffffffffffffffffffffffff167fddf252ad1be2c89b69c2b068fc378daa952ba7f163c4a11628f55a4df523b3ef60405160405180910390a4611a7c6000838360016116c5565b5050565b6000808273ffffffffffffffffffffffffffffffffffffffff163b119050919050565b6000604051905090565b600080fd5b600080fd5b60007fffffffff0000000000000000000000000000000000000000000000000000000082169050919050565b611aec81611ab7565b8114611af757600080fd5b50565b600081359050611b0981611ae3565b92915050565b600060208284031215611b2557611b24611aad565b5b6000611b3384828501611afa565b91505092915050565b60008115159050919050565b611b5181611b3c565b82525050565b6000602082019050611b6c6000830184611b48565b92915050565b600081519050919050565b600082825260208201905092915050565b60005b83811015611bac578082015181840152602081019050611b91565b83811115611bbb576000848401525b50505050565b6000601f19601f8301169050919050565b6000611bdd82611b72565b611be78185611b7d565b9350611bf7818560208601611b8e565b611c0081611bc1565b840191505092915050565b60006020820190508181036000830152611c258184611bd2565b905092915050565b6000819050919050565b611c4081611c2d565b8114611c4b57600080fd5b50565b600081359050611c5d81611c37565b92915050565b600060208284031215611c7957611c78611aad565b5b6000611c8784828501611c4e565b91505092915050565b600073ffffffffffffffffffffffffffffffffffffffff82169050919050565b6000611cbb82611c90565b9050919050565b611ccb81611cb0565b82525050565b6000602082019050611ce66000830184611cc2565b92915050565b611cf581611cb0565b8114611d0057600080fd5b50565b600081359050611d1281611cec565b92915050565b60008060408385031215611d2f57611d2e611aad565b5b6000611d3d85828601611d03565b9250506020611d4e85828601611c4e565b9150509250929050565b6000819050919050565b611d6b81611d58565b8114611d7657600080fd5b50565b600081359050611d8881611d62565b92915050565b600060208284031215611da457611da3611aad565b5b6000611db284828501611d79565b91505092915050565b600080600060608486031215611dd457611dd3611aad565b5b6000611de286828701611d03565b9350506020611df386828701611d03565b9250506040611e0486828701611c4e565b9150509250925092565b600080fd5b600080fd5b7f4e487b7100000000000000000000000000000000000000000000000000000000600052604160045260246000fd5b611e5082611bc1565b810181811067ffffffffffffffff82111715611e6f57611e6e611e18565b5b80604052505050565b6000611e82611aa3565b9050611e8e8282611e47565b919050565b600067ffffffffffffffff821115611eae57611ead611e18565b5b611eb782611bc1565b9050602081019050919050565b82818337600083830152505050565b6000611ee6611ee184611e93565b611e78565b905082815260208101848484011115611f0257611f01611e13565b5b611f0d848285611ec4565b509392505050565b600082601f830112611f2a57611f29611e0e565b5b8135611f3a848260208601611ed3565b91505092915050565b600060208284031215611f5957611f58611aad565b5b600082013567ffffffffffffffff811115611f7757611f76611ab2565b5b611f8384828501611f15565b91505092915050565b600060208284031215611fa257611fa1611aad565b5b6000611fb084828501611d03565b91505092915050565b611fc281611c2d565b82525050565b6000602082019050611fdd6000830184611fb9565b92915050565b611fec81611b3c565b8114611ff757600080fd5b50565b60008135905061200981611fe3565b92915050565b6000806040838503121561202657612025611aad565b5b600061203485828601611d03565b925050602061204585828601611ffa565b9150509250929050565b600067ffffffffffffffff82111561206a57612069611e18565b5b61207382611bc1565b9050602081019050919050565b600061209361208e8461204f565b611e78565b9050828152602081018484840111156120af576120ae611e13565b5b6120ba848285611ec4565b509392505050565b600082601f8301126120d7576120d6611e0e565b5b81356120e7848260208601612080565b91505092915050565b6000806000806080858703121561210a57612109611aad565b5b600061211887828801611d03565b945050602061212987828801611d03565b935050604061213a87828801611c4e565b925050606085013567ffffffffffffffff81111561215b5761215a611ab2565b5b612167878288016120c2565b91505092959194509250565b61217c81611d58565b82525050565b60006020820190506121976000830184612173565b92915050565b600080604083850312156121b4576121b3611aad565b5b60006121c285828601611d03565b92505060206121d385828601611d03565b9150509250929050565b7f4e487b7100000000000000000000000000000000000000000000000000000000600052602260045260246000fd5b6000600282049050600182168061222457607f821691505b60208210811415612238576122376121dd565b5b50919050565b7f4552433732313a20617070726f76616c20746f2063757272656e74206f776e6560008201527f7200000000000000000000000000000000000000000000000000000000000000602082015250565b600061229a602183611b7d565b91506122a58261223e565b604082019050919050565b600060208201905081810360008301526122c98161228d565b9050919050565b7f4552433732313a20617070726f76652063616c6c6572206973206e6f7420746f60008201527f6b656e206f776e6572206f7220617070726f76656420666f7220616c6c000000602082015250565b600061232c603d83611b7d565b9150612337826122d0565b604082019050919050565b6000602082019050818103600083015261235b8161231f565b9050919050565b7f4e487b7100000000000000000000000000000000000000000000000000000000600052601160045260246000fd5b600061239c82611c2d565b91506123a783611c2d565b9250827fffffffffffffffffffffffffffffffffffffffffffffffffffffffffffffffff038211156123dc576123db612362565b5b828201905092915050565b7f4552433732313a2063616c6c6572206973206e6f7420746f6b656e206f776e6560008201527f72206f7220617070726f76656400000000000000000000000000000000000000602082015250565b6000612443602d83611b7d565b915061244e826123e7565b604082019050919050565b6000602082019050818103600083015261247281612436565b9050919050565b600081905092915050565b600061248f82611b72565b6124998185612479565b93506124a9818560208601611b8e565b80840191505092915050565b60006124c18284612484565b915081905092915050565b60006124d88285612484565b91506124e48284612484565b91508190509392505050565b7f4552433732313a20696e76616c696420746f6b656e2049440000000000000000600082015250565b6000612526601883611b7d565b9150612531826124f0565b602082019050919050565b6000602082019050818103600083015261255581612519565b9050919050565b7f4552433732313a2061646472657373207a65726f206973206e6f74206120766160008201527f6c6964206f776e65720000000000000000000000000000000000000000000000602082015250565b60006125b8602983611b7d565b91506125c38261255c565b604082019050919050565b600060208201905081810360008301526125e7816125ab565b9050919050565b7f55524920517565727920666f72206e6f6e6578697374656e7420746f6b656e00600082015250565b6000612624601f83611b7d565b915061262f826125ee565b602082019050919050565b6000602082019050818103600083015261265381612617565b9050919050565b600069ffffffffffffffffffff82169050919050565b6126798161265a565b811461268457600080fd5b50565b60008151905061269681612670565b92915050565b6000815190506126ab81611d62565b92915050565b6000815190506126c081611c37565b92915050565b600080600080600060a086880312156126e2576126e1611aad565b5b60006126f088828901612687565b95505060206127018882890161269c565b9450506040612712888289016126b1565b9350506060612723888289016126b1565b925050608061273488828901612687565b9150509295509295909350565b7f7b226e616d65223a220000000000000000000000000000000000000000000000600082015250565b6000612777600983612479565b915061278282612741565b600982019050919050565b7f222c20226465736372697074696f6e223a22416e204e4654207468617420636860008201527f616e676573206261736564206f6e2074686520436861696e6c696e6b2046656560208201527f64222c2000000000000000000000000000000000000000000000000000000000604082015250565b600061280f604483612479565b915061281a8261278d565b604482019050919050565b7f2261747472696275746573223a205b7b2274726169745f74797065223a20226360008201527f6f6f6c6e657373222c202276616c7565223a203130307d5d2c2022696d61676560208201527f223a220000000000000000000000000000000000000000000000000000000000604082015250565b60006128a7604383612479565b91506128b282612825565b604382019050919050565b7f227d000000000000000000000000000000000000000000000000000000000000600082015250565b60006128f3600283612479565b91506128fe826128bd565b600282019050919050565b60006129148261276a565b91506129208285612484565b915061292b82612802565b91506129368261289a565b91506129428284612484565b915061294d826128e6565b91508190509392505050565b7f4e487b7100000000000000000000000000000000000000000000000000000000600052601260045260246000fd5b600061299382611c2d565b915061299e83611c2d565b9250826129ae576129ad612959565b5b828204905092915050565b60006129c482611c2d565b91506129cf83611c2d565b9250817fffffffffffffffffffffffffffffffffffffffffffffffffffffffffffffffff0483118215151615612a0857612a07612362565b5b828202905092915050565b7f4552433732313a207472616e736665722066726f6d20696e636f72726563742060008201527f6f776e6572000000000000000000000000000000000000000000000000000000602082015250565b6000612a6f602583611b7d565b9150612a7a82612a13565b604082019050919050565b60006020820190508181036000830152612a9e81612a62565b9050919050565b7f4552433732313a207472616e7366657220746f20746865207a65726f2061646460008201527f7265737300000000000000000000000000000000000000000000000000000000602082015250565b6000612b01602483611b7d565b9150612b0c82612aa5565b604082019050919050565b60006020820190508181036000830152612b3081612af4565b9050919050565b7f4552433732313a20617070726f766520746f2063616c6c657200000000000000600082015250565b6000612b6d601983611b7d565b9150612b7882612b37565b602082019050919050565b60006020820190508181036000830152612b9c81612b60565b9050919050565b7f4552433732313a207472616e7366657220746f206e6f6e20455243373231526560008201527f63656976657220696d706c656d656e7465720000000000000000000000000000602082015250565b6000612bff603283611b7d565b9150612c0a82612ba3565b604082019050919050565b60006020820190508181036000830152612c2e81612bf2565b9050919050565b600081519050919050565b600082825260208201905092915050565b6000612c5c82612c35565b612c668185612c40565b9350612c76818560208601611b8e565b612c7f81611bc1565b840191505092915050565b6000608082019050612c9f6000830187611cc2565b612cac6020830186611cc2565b612cb96040830185611fb9565b8181036060830152612ccb8184612c51565b905095945050505050565b600081519050612ce581611ae3565b92915050565b600060208284031215612d0157612d00611aad565b5b6000612d0f84828501612cd6565b91505092915050565b7f4552433732313a206d696e7420746f20746865207a65726f2061646472657373600082015250565b6000612d4e602083611b7d565b9150612d5982612d18565b602082019050919050565b60006020820190508181036000830152612d7d81612d41565b9050919050565b7f4552433732313a20746f6b656e20616c7265616479206d696e74656400000000600082015250565b6000612dba601c83611b7d565b9150612dc582612d84565b602082019050919050565b60006020820190508181036000830152612de981612dad565b905091905056fe4142434445464748494a4b4c4d4e4f505152535455565758595a6162636465666768696a6b6c6d6e6f707172737475767778797a303132333435363738392b2fa264697066735822122036d26864b25dcb397130cd4324a9f359de68fcda93524ee5a887e4a61947f33964736f6c634300080800334142434445464748494a4b4c4d4e4f505152535455565758595a6162636465666768696a6b6c6d6e6f707172737475767778797a303132333435363738392b2f",
  "linkReferences": {},
  "deployedLinkReferences": {}
}