{
  "_format": "hh-sol-artifact-1",
  "contractName": "RandomIpfsNft",
  "sourceName": "contracts/RandomIpfsNft.sol",
  "abi": [
    {
      "inputs": [
        {
          "internalType": "address",
          "name": "vrfCoordinatorV2",
          "type": "address"
        },
        {
          "internalType": "uint64",
          "name": "subscriptionId",
          "type": "uint64"
        },
        {
          "internalType": "bytes32",
          "name": "gasLane",
          "type": "bytes32"
        },
        {
          "internalType": "uint32",
          "name": "callbackGasLimit",
          "type": "uint32"
        },
        {
          "internalType": "string[3]",
          "name": "dogTokenUris",
          "type": "string[3]"
        },
        {
          "internalType": "uint256",
          "name": "mintFee",
          "type": "uint256"
        }
      ],
      "stateMutability": "nonpayable",
      "type": "constructor"
    },
    {
      "inputs": [
        {
          "internalType": "address",
          "name": "have",
          "type": "address"
        },
        {
          "internalType": "address",
          "name": "want",
          "type": "address"
        }
      ],
      "name": "OnlyCoordinatorCanFulfill",
      "type": "error"
    },
    {
      "inputs": [],
      "name": "randomIpfsNft_NeedMoreETHSent",
      "type": "error"
    },
    {
      "inputs": [],
      "name": "randomIpfsNft_RangeOutOfBounds",
      "type": "error"
    },
    {
      "inputs": [],
      "name": "randomIpfsNft_TransferFailed",
      "type": "error"
    },
    {
      "anonymous": false,
      "inputs": [
        {
          "indexed": true,
          "internalType": "address",
          "name": "owner",
          "type": "address"
        },
        {
          "indexed": true,
          "internalType": "address",
          "name": "approved",
          "type": "address"
        },
        {
          "indexed": true,
          "internalType": "uint256",
          "name": "tokenId",
          "type": "uint256"
        }
      ],
      "name": "Approval",
      "type": "event"
    },
    {
      "anonymous": false,
      "inputs": [
        {
          "indexed": true,
          "internalType": "address",
          "name": "owner",
          "type": "address"
        },
        {
          "indexed": true,
          "internalType": "address",
          "name": "operator",
          "type": "address"
        },
        {
          "indexed": false,
          "internalType": "bool",
          "name": "approved",
          "type": "bool"
        }
      ],
      "name": "ApprovalForAll",
      "type": "event"
    },
    {
      "anonymous": false,
      "inputs": [
        {
          "indexed": false,
          "internalType": "uint256",
          "name": "_fromTokenId",
          "type": "uint256"
        },
        {
          "indexed": false,
          "internalType": "uint256",
          "name": "_toTokenId",
          "type": "uint256"
        }
      ],
      "name": "BatchMetadataUpdate",
      "type": "event"
    },
    {
      "anonymous": false,
      "inputs": [
        {
          "indexed": false,
          "internalType": "uint256",
          "name": "_tokenId",
          "type": "uint256"
        }
      ],
      "name": "MetadataUpdate",
      "type": "event"
    },
    {
      "anonymous": false,
      "inputs": [
        {
          "indexed": true,
          "internalType": "uint256",
          "name": "requestId",
          "type": "uint256"
        },
        {
          "indexed": false,
          "internalType": "address",
          "name": "requester",
          "type": "address"
        }
      ],
      "name": "NftRequested",
      "type": "event"
    },
    {
      "anonymous": false,
      "inputs": [
        {
          "indexed": false,
          "internalType": "enum RandomIpfsNft.Breed",
          "name": "dogBreed",
          "type": "uint8"
        },
        {
          "indexed": false,
          "internalType": "address",
          "name": "minter",
          "type": "address"
        }
      ],
      "name": "Nftminted",
      "type": "event"
    },
    {
      "anonymous": false,
      "inputs": [
        {
          "indexed": true,
          "internalType": "address",
          "name": "previousOwner",
          "type": "address"
        },
        {
          "indexed": true,
          "internalType": "address",
          "name": "newOwner",
          "type": "address"
        }
      ],
      "name": "OwnershipTransferred",
      "type": "event"
    },
    {
      "anonymous": false,
      "inputs": [
        {
          "indexed": true,
          "internalType": "address",
          "name": "from",
          "type": "address"
        },
        {
          "indexed": true,
          "internalType": "address",
          "name": "to",
          "type": "address"
        },
        {
          "indexed": true,
          "internalType": "uint256",
          "name": "tokenId",
          "type": "uint256"
        }
      ],
      "name": "Transfer",
      "type": "event"
    },
    {
      "inputs": [
        {
          "internalType": "address",
          "name": "to",
          "type": "address"
        },
        {
          "internalType": "uint256",
          "name": "tokenId",
          "type": "uint256"
        }
      ],
      "name": "approve",
      "outputs": [],
      "stateMutability": "nonpayable",
      "type": "function"
    },
    {
      "inputs": [
        {
          "internalType": "address",
          "name": "owner",
          "type": "address"
        }
      ],
      "name": "balanceOf",
      "outputs": [
        {
          "internalType": "uint256",
          "name": "",
          "type": "uint256"
        }
      ],
      "stateMutability": "view",
      "type": "function"
    },
    {
      "inputs": [
        {
          "internalType": "uint256",
          "name": "tokenId",
          "type": "uint256"
        }
      ],
      "name": "getApproved",
      "outputs": [
        {
          "internalType": "address",
          "name": "",
          "type": "address"
        }
      ],
      "stateMutability": "view",
      "type": "function"
    },
    {
      "inputs": [
        {
          "internalType": "uint256",
          "name": "moddedRng",
          "type": "uint256"
        }
      ],
      "name": "getBreedFromModdedRng",
      "outputs": [
        {
          "internalType": "enum RandomIpfsNft.Breed",
          "name": "",
          "type": "uint8"
        }
      ],
      "stateMutability": "pure",
      "type": "function"
    },
    {
      "inputs": [],
      "name": "getChanceArray",
      "outputs": [
        {
          "internalType": "uint256[3]",
          "name": "",
          "type": "uint256[3]"
        }
      ],
      "stateMutability": "pure",
      "type": "function"
    },
    {
      "inputs": [
        {
          "internalType": "uint256",
          "name": "index",
          "type": "uint256"
        }
      ],
      "name": "getDogTokenUris",
      "outputs": [
        {
          "internalType": "string",
          "name": "",
          "type": "string"
        }
      ],
      "stateMutability": "view",
      "type": "function"
    },
    {
      "inputs": [],
      "name": "getMintFee",
      "outputs": [
        {
          "internalType": "uint256",
          "name": "",
          "type": "uint256"
        }
      ],
      "stateMutability": "view",
      "type": "function"
    },
    {
      "inputs": [],
      "name": "getTokenCounter",
      "outputs": [
        {
          "internalType": "uint256",
          "name": "",
          "type": "uint256"
        }
      ],
      "stateMutability": "view",
      "type": "function"
    },
    {
      "inputs": [
        {
          "internalType": "address",
          "name": "owner",
          "type": "address"
        },
        {
          "internalType": "address",
          "name": "operator",
          "type": "address"
        }
      ],
      "name": "isApprovedForAll",
      "outputs": [
        {
          "internalType": "bool",
          "name": "",
          "type": "bool"
        }
      ],
      "stateMutability": "view",
      "type": "function"
    },
    {
      "inputs": [],
      "name": "name",
      "outputs": [
        {
          "internalType": "string",
          "name": "",
          "type": "string"
        }
      ],
      "stateMutability": "view",
      "type": "function"
    },
    {
      "inputs": [],
      "name": "owner",
      "outputs": [
        {
          "internalType": "address",
          "name": "",
          "type": "address"
        }
      ],
      "stateMutability": "view",
      "type": "function"
    },
    {
      "inputs": [
        {
          "internalType": "uint256",
          "name": "tokenId",
          "type": "uint256"
        }
      ],
      "name": "ownerOf",
      "outputs": [
        {
          "internalType": "address",
          "name": "",
          "type": "address"
        }
      ],
      "stateMutability": "view",
      "type": "function"
    },
    {
      "inputs": [
        {
          "internalType": "uint256",
          "name": "requestId",
          "type": "uint256"
        },
        {
          "internalType": "uint256[]",
          "name": "randomWords",
          "type": "uint256[]"
        }
      ],
      "name": "rawFulfillRandomWords",
      "outputs": [],
      "stateMutability": "nonpayable",
      "type": "function"
    },
    {
      "inputs": [],
      "name": "renounceOwnership",
      "outputs": [],
      "stateMutability": "nonpayable",
      "type": "function"
    },
    {
      "inputs": [],
      "name": "requestNft",
      "outputs": [
        {
          "internalType": "uint256",
          "name": "requestId",
          "type": "uint256"
        }
      ],
      "stateMutability": "payable",
      "type": "function"
    },
    {
      "inputs": [
        {
          "internalType": "address",
          "name": "from",
          "type": "address"
        },
        {
          "internalType": "address",
          "name": "to",
          "type": "address"
        },
        {
          "internalType": "uint256",
          "name": "tokenId",
          "type": "uint256"
        }
      ],
      "name": "safeTransferFrom",
      "outputs": [],
      "stateMutability": "nonpayable",
      "type": "function"
    },
    {
      "inputs": [
        {
          "internalType": "address",
          "name": "from",
          "type": "address"
        },
        {
          "internalType": "address",
          "name": "to",
          "type": "address"
        },
        {
          "internalType": "uint256",
          "name": "tokenId",
          "type": "uint256"
        },
        {
          "internalType": "bytes",
          "name": "data",
          "type": "bytes"
        }
      ],
      "name": "safeTransferFrom",
      "outputs": [],
      "stateMutability": "nonpayable",
      "type": "function"
    },
    {
      "inputs": [
        {
          "internalType": "address",
          "name": "operator",
          "type": "address"
        },
        {
          "internalType": "bool",
          "name": "approved",
          "type": "bool"
        }
      ],
      "name": "setApprovalForAll",
      "outputs": [],
      "stateMutability": "nonpayable",
      "type": "function"
    },
    {
      "inputs": [
        {
          "internalType": "bytes4",
          "name": "interfaceId",
          "type": "bytes4"
        }
      ],
      "name": "supportsInterface",
      "outputs": [
        {
          "internalType": "bool",
          "name": "",
          "type": "bool"
        }
      ],
      "stateMutability": "view",
      "type": "function"
    },
    {
      "inputs": [],
      "name": "symbol",
      "outputs": [
        {
          "internalType": "string",
          "name": "",
          "type": "string"
        }
      ],
      "stateMutability": "view",
      "type": "function"
    },
    {
      "inputs": [
        {
          "internalType": "uint256",
          "name": "tokenId",
          "type": "uint256"
        }
      ],
      "name": "tokenURI",
      "outputs": [
        {
          "internalType": "string",
          "name": "",
          "type": "string"
        }
      ],
      "stateMutability": "view",
      "type": "function"
    },
    {
      "inputs": [
        {
          "internalType": "address",
          "name": "from",
          "type": "address"
        },
        {
          "internalType": "address",
          "name": "to",
          "type": "address"
        },
        {
          "internalType": "uint256",
          "name": "tokenId",
          "type": "uint256"
        }
      ],
      "name": "transferFrom",
      "outputs": [],
      "stateMutability": "nonpayable",
      "type": "function"
    },
    {
      "inputs": [
        {
          "internalType": "address",
          "name": "newOwner",
          "type": "address"
        }
      ],
      "name": "transferOwnership",
      "outputs": [],
      "stateMutability": "nonpayable",
      "type": "function"
    },
    {
      "inputs": [],
      "name": "withdraw",
      "outputs": [],
      "stateMutability": "nonpayable",
      "type": "function"
    }
  ],
  "bytecode": "0x6101406040523480156200001257600080fd5b50604051620044023803806200440283398181016040528101906200003891906200080b565b6040518060400160405280600f81526020017f52616e646f6d2049504653204e465400000000000000000000000000000000008152506040518060400160405280600381526020017f52494e0000000000000000000000000000000000000000000000000000000000815250878073ffffffffffffffffffffffffffffffffffffffff1660808173ffffffffffffffffffffffffffffffffffffffff1660601b81525050508160009080519060200190620000f59291906200029e565b5080600190805190602001906200010e9291906200029e565b5050506200013162000125620001d060201b60201c565b620001d860201b60201c565b8573ffffffffffffffffffffffffffffffffffffffff1660a08173ffffffffffffffffffffffffffffffffffffffff1660601b815250508467ffffffffffffffff1660c08167ffffffffffffffff1660c01b815250508360e081815250508263ffffffff166101008163ffffffff1660e01b8152505081600a906003620001ba9291906200032f565b508061012081815250505050505050506200092b565b600033905090565b6000600760009054906101000a900473ffffffffffffffffffffffffffffffffffffffff16905081600760006101000a81548173ffffffffffffffffffffffffffffffffffffffff021916908373ffffffffffffffffffffffffffffffffffffffff1602179055508173ffffffffffffffffffffffffffffffffffffffff168173ffffffffffffffffffffffffffffffffffffffff167f8be0079c531659141344cd1fd0a4f28419497f9722a3daafe3b4186f6b6457e060405160405180910390a35050565b828054620002ac90620008f5565b90600052602060002090601f016020900481019282620002d057600085556200031c565b82601f10620002eb57805160ff19168380011785556200031c565b828001600101855582156200031c579182015b828111156200031b578251825591602001919060010190620002fe565b5b5090506200032b919062000396565b5090565b82805482825590600052602060002090810192821562000383579160200282015b8281111562000382578251829080519060200190620003719291906200029e565b509160200191906001019062000350565b5b509050620003929190620003b5565b5090565b5b80821115620003b157600081600090555060010162000397565b5090565b5b80821115620003d95760008181620003cf9190620003dd565b50600101620003b6565b5090565b508054620003eb90620008f5565b6000825580601f10620003ff575062000420565b601f0160209004906000526020600020908101906200041f919062000396565b5b50565b6000604051905090565b600080fd5b600080fd5b600073ffffffffffffffffffffffffffffffffffffffff82169050919050565b6000620004648262000437565b9050919050565b620004768162000457565b81146200048257600080fd5b50565b60008151905062000496816200046b565b92915050565b600067ffffffffffffffff82169050919050565b620004bb816200049c565b8114620004c757600080fd5b50565b600081519050620004db81620004b0565b92915050565b6000819050919050565b620004f681620004e1565b81146200050257600080fd5b50565b6000815190506200051681620004eb565b92915050565b600063ffffffff82169050919050565b62000537816200051c565b81146200054357600080fd5b50565b60008151905062000557816200052c565b92915050565b600080fd5b6000601f19601f8301169050919050565b7f4e487b7100000000000000000000000000000000000000000000000000000000600052604160045260246000fd5b620005ad8262000562565b810181811067ffffffffffffffff82111715620005cf57620005ce62000573565b5b80604052505050565b6000620005e462000423565b9050620005f28282620005a2565b919050565b600067ffffffffffffffff82111562000615576200061462000573565b5b602082029050919050565b600080fd5b600080fd5b600067ffffffffffffffff82111562000648576200064762000573565b5b620006538262000562565b9050602081019050919050565b60005b838110156200068057808201518184015260208101905062000663565b8381111562000690576000848401525b50505050565b6000620006ad620006a7846200062a565b620005d8565b905082815260208101848484011115620006cc57620006cb62000625565b5b620006d984828562000660565b509392505050565b600082601f830112620006f957620006f86200055d565b5b81516200070b84826020860162000696565b91505092915050565b60006200072b6200072584620005f7565b620005d8565b9050806020840283018581111562000748576200074762000620565b5b835b818110156200079657805167ffffffffffffffff8111156200077157620007706200055d565b5b808601620007808982620006e1565b855260208501945050506020810190506200074a565b5050509392505050565b600082601f830112620007b857620007b76200055d565b5b6003620007c784828562000714565b91505092915050565b6000819050919050565b620007e581620007d0565b8114620007f157600080fd5b50565b6000815190506200080581620007da565b92915050565b60008060008060008060c087890312156200082b576200082a6200042d565b5b60006200083b89828a0162000485565b96505060206200084e89828a01620004ca565b95505060406200086189828a0162000505565b94505060606200087489828a0162000546565b935050608087015167ffffffffffffffff81111562000898576200089762000432565b5b620008a689828a01620007a0565b92505060a0620008b989828a01620007f4565b9150509295509295509295565b7f4e487b7100000000000000000000000000000000000000000000000000000000600052602260045260246000fd5b600060028204905060018216806200090e57607f821691505b60208210811415620009255762000924620008c6565b5b50919050565b60805160601c60a05160601c60c05160c01c60e0516101005160e01c61012051613a6d6200099560003960008181610c260152610e0201526000610edc01526000610e9801526000610eb901526000610e5c0152600081816107f8015261084c0152613a6d6000f3fe60806040526004361061014b5760003560e01c806370a08231116100b6578063a51cccf31161006f578063a51cccf31461047e578063aa152491146104bb578063b88d4fde146104d9578063c87b56dd14610502578063e985e9c51461053f578063f2fde38b1461057c5761014b565b806370a0823114610380578063715018a6146103bd5780637a5caab3146103d45780638da5cb5b146103ff57806395d89b411461042a578063a22cb465146104555761014b565b80633af25975116101085780633af25975146102705780633ccfd60b146102ad57806342842e0e146102c45780635dacf5f4146102ed5780636352211e146103185780636e02007d146103555761014b565b806301ffc9a71461015057806306fdde031461018d578063081812fc146101b8578063095ea7b3146101f55780631fe543e31461021e57806323b872dd14610247575b600080fd5b34801561015c57600080fd5b5061017760048036038101906101729190612680565b6105a5565b60405161018491906126c8565b60405180910390f35b34801561019957600080fd5b506101a2610606565b6040516101af919061277c565b60405180910390f35b3480156101c457600080fd5b506101df60048036038101906101da91906127d4565b610698565b6040516101ec9190612842565b60405180910390f35b34801561020157600080fd5b5061021c60048036038101906102179190612889565b6106de565b005b34801561022a57600080fd5b5061024560048036038101906102409190612a11565b6107f6565b005b34801561025357600080fd5b5061026e60048036038101906102699190612a6d565b6108b6565b005b34801561027c57600080fd5b50610297600480360381019061029291906127d4565b610916565b6040516102a4919061277c565b60405180910390f35b3480156102b957600080fd5b506102c26109c6565b005b3480156102d057600080fd5b506102eb60048036038101906102e69190612a6d565b610a7a565b005b3480156102f957600080fd5b50610302610a9a565b60405161030f9190612b6b565b60405180910390f35b34801561032457600080fd5b5061033f600480360381019061033a91906127d4565b610ac5565b60405161034c9190612842565b60405180910390f35b34801561036157600080fd5b5061036a610b4c565b6040516103779190612b95565b60405180910390f35b34801561038c57600080fd5b506103a760048036038101906103a29190612bb0565b610b56565b6040516103b49190612b95565b60405180910390f35b3480156103c957600080fd5b506103d2610c0e565b005b3480156103e057600080fd5b506103e9610c22565b6040516103f69190612b95565b60405180910390f35b34801561040b57600080fd5b50610414610c4a565b6040516104219190612842565b60405180910390f35b34801561043657600080fd5b5061043f610c74565b60405161044c919061277c565b60405180910390f35b34801561046157600080fd5b5061047c60048036038101906104779190612c09565b610d06565b005b34801561048a57600080fd5b506104a560048036038101906104a091906127d4565b610d1c565b6040516104b29190612cc0565b60405180910390f35b6104c3610dfe565b6040516104d09190612b95565b60405180910390f35b3480156104e557600080fd5b5061050060048036038101906104fb9190612d90565b610ffe565b005b34801561050e57600080fd5b50610529600480360381019061052491906127d4565b611060565b604051610536919061277c565b60405180910390f35b34801561054b57600080fd5b5061056660048036038101906105619190612e13565b611173565b60405161057391906126c8565b60405180910390f35b34801561058857600080fd5b506105a3600480360381019061059e9190612bb0565b611207565b005b6000634906490660e01b7bffffffffffffffffffffffffffffffffffffffffffffffffffffffff1916827bffffffffffffffffffffffffffffffffffffffffffffffffffffffff191614806105ff57506105fe8261128b565b5b9050919050565b60606000805461061590612e82565b80601f016020809104026020016040519081016040528092919081815260200182805461064190612e82565b801561068e5780601f106106635761010080835404028352916020019161068e565b820191906000526020600020905b81548152906001019060200180831161067157829003601f168201915b5050505050905090565b60006106a38261136d565b6004600083815260200190815260200160002060009054906101000a900473ffffffffffffffffffffffffffffffffffffffff169050919050565b60006106e982610ac5565b90508073ffffffffffffffffffffffffffffffffffffffff168373ffffffffffffffffffffffffffffffffffffffff16141561075a576040517f08c379a000000000000000000000000000000000000000000000000000000000815260040161075190612f26565b60405180910390fd5b8073ffffffffffffffffffffffffffffffffffffffff166107796113b8565b73ffffffffffffffffffffffffffffffffffffffff1614806107a857506107a7816107a26113b8565b611173565b5b6107e7576040517f08c379a00000000000000000000000000000000000000000000000000000000081526004016107de90612fb8565b60405180910390fd5b6107f183836113c0565b505050565b7f000000000000000000000000000000000000000000000000000000000000000073ffffffffffffffffffffffffffffffffffffffff163373ffffffffffffffffffffffffffffffffffffffff16146108a857337f00000000000000000000000000000000000000000000000000000000000000006040517f1cf993f400000000000000000000000000000000000000000000000000000000815260040161089f929190612fd8565b60405180910390fd5b6108b28282611479565b5050565b6108c76108c16113b8565b82611619565b610906576040517f08c379a00000000000000000000000000000000000000000000000000000000081526004016108fd90613073565b60405180910390fd5b6109118383836116ae565b505050565b6060600a828154811061092c5761092b613093565b5b90600052602060002001805461094190612e82565b80601f016020809104026020016040519081016040528092919081815260200182805461096d90612e82565b80156109ba5780601f1061098f576101008083540402835291602001916109ba565b820191906000526020600020905b81548152906001019060200180831161099d57829003601f168201915b50505050509050919050565b6109ce6119a8565b600047905060003373ffffffffffffffffffffffffffffffffffffffff16826040516109f9906130f3565b60006040518083038185875af1925050503d8060008114610a36576040519150601f19603f3d011682016040523d82523d6000602084013e610a3b565b606091505b5050905080610a76576040517f72a5a44b00000000000000000000000000000000000000000000000000000000815260040160405180910390fd5b5050565b610a9583838360405180602001604052806000815250610ffe565b505050565b610aa261254f565b6040518060600160405280600a8152602001601e81526020016064815250905090565b600080610ad183611a26565b9050600073ffffffffffffffffffffffffffffffffffffffff168173ffffffffffffffffffffffffffffffffffffffff161415610b43576040517f08c379a0000000000000000000000000000000000000000000000000000000008152600401610b3a90613154565b60405180910390fd5b80915050919050565b6000600954905090565b60008073ffffffffffffffffffffffffffffffffffffffff168273ffffffffffffffffffffffffffffffffffffffff161415610bc7576040517f08c379a0000000000000000000000000000000000000000000000000000000008152600401610bbe906131e6565b60405180910390fd5b600360008373ffffffffffffffffffffffffffffffffffffffff1673ffffffffffffffffffffffffffffffffffffffff168152602001908152602001600020549050919050565b610c166119a8565b610c206000611a63565b565b60007f0000000000000000000000000000000000000000000000000000000000000000905090565b6000600760009054906101000a900473ffffffffffffffffffffffffffffffffffffffff16905090565b606060018054610c8390612e82565b80601f0160208091040260200160405190810160405280929190818152602001828054610caf90612e82565b8015610cfc5780601f10610cd157610100808354040283529160200191610cfc565b820191906000526020600020905b815481529060010190602001808311610cdf57829003601f168201915b5050505050905090565b610d18610d116113b8565b8383611b29565b5050565b600080600090506000610d2d610a9a565b905060005b6003811115610dc657828510158015610d6c5750818160038110610d5957610d58613093565b5b602002015183610d699190613235565b85105b15610d8e57806002811115610d8457610d83612c49565b5b9350505050610df9565b818160038110610da157610da0613093565b5b602002015183610db19190613235565b92508080610dbe9061328b565b915050610d32565b506040517fe3bc09f500000000000000000000000000000000000000000000000000000000815260040160405180910390fd5b919050565b60007f0000000000000000000000000000000000000000000000000000000000000000341015610e5a576040517fb277fb0500000000000000000000000000000000000000000000000000000000815260040160405180910390fd5b7f000000000000000000000000000000000000000000000000000000000000000073ffffffffffffffffffffffffffffffffffffffff16635d3b1d307f00000000000000000000000000000000000000000000000000000000000000007f000000000000000000000000000000000000000000000000000000000000000060037f000000000000000000000000000000000000000000000000000000000000000060016040518663ffffffff1660e01b8152600401610f1d95949392919061334c565b602060405180830381600087803b158015610f3757600080fd5b505af1158015610f4b573d6000803e3d6000fd5b505050506040513d601f19601f82011682018060405250810190610f6f91906133b4565b9050336008600083815260200190815260200160002060006101000a81548173ffffffffffffffffffffffffffffffffffffffff021916908373ffffffffffffffffffffffffffffffffffffffff160217905550807ff873236e6cc0ecc5be1a9a35c95ee5b8d1ac4cc7bfef0cc5060391d6cc98e26b33604051610ff39190612842565b60405180910390a290565b61100f6110096113b8565b83611619565b61104e576040517f08c379a000000000000000000000000000000000000000000000000000000000815260040161104590613073565b60405180910390fd5b61105a84848484611c96565b50505050565b606061106b8261136d565b600060066000848152602001908152602001600020805461108b90612e82565b80601f01602080910402602001604051908101604052809291908181526020018280546110b790612e82565b80156111045780601f106110d957610100808354040283529160200191611104565b820191906000526020600020905b8154815290600101906020018083116110e757829003601f168201915b505050505090506000611115611cf2565b905060008151141561112b57819250505061116e565b60008251111561116057808260405160200161114892919061341d565b6040516020818303038152906040529250505061116e565b61116984611d09565b925050505b919050565b6000600560008473ffffffffffffffffffffffffffffffffffffffff1673ffffffffffffffffffffffffffffffffffffffff16815260200190815260200160002060008373ffffffffffffffffffffffffffffffffffffffff1673ffffffffffffffffffffffffffffffffffffffff16815260200190815260200160002060009054906101000a900460ff16905092915050565b61120f6119a8565b600073ffffffffffffffffffffffffffffffffffffffff168173ffffffffffffffffffffffffffffffffffffffff16141561127f576040517f08c379a0000000000000000000000000000000000000000000000000000000008152600401611276906134b3565b60405180910390fd5b61128881611a63565b50565b60007f80ac58cd000000000000000000000000000000000000000000000000000000007bffffffffffffffffffffffffffffffffffffffffffffffffffffffff1916827bffffffffffffffffffffffffffffffffffffffffffffffffffffffff1916148061135657507f5b5e139f000000000000000000000000000000000000000000000000000000007bffffffffffffffffffffffffffffffffffffffffffffffffffffffff1916827bffffffffffffffffffffffffffffffffffffffffffffffffffffffff1916145b80611366575061136582611d71565b5b9050919050565b61137681611ddb565b6113b5576040517f08c379a00000000000000000000000000000000000000000000000000000000081526004016113ac90613154565b60405180910390fd5b50565b600033905090565b816004600083815260200190815260200160002060006101000a81548173ffffffffffffffffffffffffffffffffffffffff021916908373ffffffffffffffffffffffffffffffffffffffff160217905550808273ffffffffffffffffffffffffffffffffffffffff1661143383610ac5565b73ffffffffffffffffffffffffffffffffffffffff167f8c5be1e5ebec7d5bd14f71427d1e84f3dd0314c0f7b2291e5b200ac8c7c3b92560405160405180910390a45050565b60006008600084815260200190815260200160002060009054906101000a900473ffffffffffffffffffffffffffffffffffffffff1690506000600954905060006064846000815181106114d0576114cf613093565b5b60200260200101516114e29190613502565b905060006114ef82610d1c565b9050600954600960008282546115059190613235565b925050819055506115168484611e1c565b6115d883600a83600281111561152f5761152e612c49565b5b815481106115405761153f613093565b5b90600052602060002001805461155590612e82565b80601f016020809104026020016040519081016040528092919081815260200182805461158190612e82565b80156115ce5780601f106115a3576101008083540402835291602001916115ce565b820191906000526020600020905b8154815290600101906020018083116115b157829003601f168201915b5050505050611e3a565b7fcdf57ecb2c3aa16b6aa947d2477a018b8bd181ef0ecdcef44cd8ed41be8c72408185604051611609929190613533565b60405180910390a1505050505050565b60008061162583610ac5565b90508073ffffffffffffffffffffffffffffffffffffffff168473ffffffffffffffffffffffffffffffffffffffff16148061166757506116668185611173565b5b806116a557508373ffffffffffffffffffffffffffffffffffffffff1661168d84610698565b73ffffffffffffffffffffffffffffffffffffffff16145b91505092915050565b8273ffffffffffffffffffffffffffffffffffffffff166116ce82610ac5565b73ffffffffffffffffffffffffffffffffffffffff1614611724576040517f08c379a000000000000000000000000000000000000000000000000000000000815260040161171b906135ce565b60405180910390fd5b600073ffffffffffffffffffffffffffffffffffffffff168273ffffffffffffffffffffffffffffffffffffffff161415611794576040517f08c379a000000000000000000000000000000000000000000000000000000000815260040161178b90613660565b60405180910390fd5b6117a18383836001611ee5565b8273ffffffffffffffffffffffffffffffffffffffff166117c182610ac5565b73ffffffffffffffffffffffffffffffffffffffff1614611817576040517f08c379a000000000000000000000000000000000000000000000000000000000815260040161180e906135ce565b60405180910390fd5b6004600082815260200190815260200160002060006101000a81549073ffffffffffffffffffffffffffffffffffffffff02191690556001600360008573ffffffffffffffffffffffffffffffffffffffff1673ffffffffffffffffffffffffffffffffffffffff168152602001908152602001600020600082825403925050819055506001600360008473ffffffffffffffffffffffffffffffffffffffff1673ffffffffffffffffffffffffffffffffffffffff16815260200190815260200160002060008282540192505081905550816002600083815260200190815260200160002060006101000a81548173ffffffffffffffffffffffffffffffffffffffff021916908373ffffffffffffffffffffffffffffffffffffffff160217905550808273ffffffffffffffffffffffffffffffffffffffff168473ffffffffffffffffffffffffffffffffffffffff167fddf252ad1be2c89b69c2b068fc378daa952ba7f163c4a11628f55a4df523b3ef60405160405180910390a46119a38383836001611eeb565b505050565b6119b06113b8565b73ffffffffffffffffffffffffffffffffffffffff166119ce610c4a565b73ffffffffffffffffffffffffffffffffffffffff1614611a24576040517f08c379a0000000000000000000000000000000000000000000000000000000008152600401611a1b906136cc565b60405180910390fd5b565b60006002600083815260200190815260200160002060009054906101000a900473ffffffffffffffffffffffffffffffffffffffff169050919050565b6000600760009054906101000a900473ffffffffffffffffffffffffffffffffffffffff16905081600760006101000a81548173ffffffffffffffffffffffffffffffffffffffff021916908373ffffffffffffffffffffffffffffffffffffffff1602179055508173ffffffffffffffffffffffffffffffffffffffff168173ffffffffffffffffffffffffffffffffffffffff167f8be0079c531659141344cd1fd0a4f28419497f9722a3daafe3b4186f6b6457e060405160405180910390a35050565b8173ffffffffffffffffffffffffffffffffffffffff168373ffffffffffffffffffffffffffffffffffffffff161415611b98576040517f08c379a0000000000000000000000000000000000000000000000000000000008152600401611b8f90613738565b60405180910390fd5b80600560008573ffffffffffffffffffffffffffffffffffffffff1673ffffffffffffffffffffffffffffffffffffffff16815260200190815260200160002060008473ffffffffffffffffffffffffffffffffffffffff1673ffffffffffffffffffffffffffffffffffffffff16815260200190815260200160002060006101000a81548160ff0219169083151502179055508173ffffffffffffffffffffffffffffffffffffffff168373ffffffffffffffffffffffffffffffffffffffff167f17307eab39ab6107e8899845ad3d59bd9653f200f220920489ca2b5937696c3183604051611c8991906126c8565b60405180910390a3505050565b611ca18484846116ae565b611cad84848484611ef1565b611cec576040517f08c379a0000000000000000000000000000000000000000000000000000000008152600401611ce3906137ca565b60405180910390fd5b50505050565b606060405180602001604052806000815250905090565b6060611d148261136d565b6000611d1e611cf2565b90506000815111611d3e5760405180602001604052806000815250611d69565b80611d4884612088565b604051602001611d5992919061341d565b6040516020818303038152906040525b915050919050565b60007f01ffc9a7000000000000000000000000000000000000000000000000000000007bffffffffffffffffffffffffffffffffffffffffffffffffffffffff1916827bffffffffffffffffffffffffffffffffffffffffffffffffffffffff1916149050919050565b60008073ffffffffffffffffffffffffffffffffffffffff16611dfd83611a26565b73ffffffffffffffffffffffffffffffffffffffff1614159050919050565b611e36828260405180602001604052806000815250612160565b5050565b611e4382611ddb565b611e82576040517f08c379a0000000000000000000000000000000000000000000000000000000008152600401611e799061385c565b60405180910390fd5b80600660008481526020019081526020016000209080519060200190611ea9929190612571565b507ff8e1a15aba9398e019f0b49df1a4fde98ee17ae345cb5f6b5e2c27f5033e8ce782604051611ed99190612b95565b60405180910390a15050565b50505050565b50505050565b6000611f128473ffffffffffffffffffffffffffffffffffffffff166121bb565b1561207b578373ffffffffffffffffffffffffffffffffffffffff1663150b7a02611f3b6113b8565b8786866040518563ffffffff1660e01b8152600401611f5d94939291906138d1565b602060405180830381600087803b158015611f7757600080fd5b505af1925050508015611fa857506040513d601f19601f82011682018060405250810190611fa59190613932565b60015b61202b573d8060008114611fd8576040519150601f19603f3d011682016040523d82523d6000602084013e611fdd565b606091505b50600081511415612023576040517f08c379a000000000000000000000000000000000000000000000000000000000815260040161201a906137ca565b60405180910390fd5b805181602001fd5b63150b7a0260e01b7bffffffffffffffffffffffffffffffffffffffffffffffffffffffff1916817bffffffffffffffffffffffffffffffffffffffffffffffffffffffff191614915050612080565b600190505b949350505050565b606060006001612097846121de565b01905060008167ffffffffffffffff8111156120b6576120b56128ce565b5b6040519080825280601f01601f1916602001820160405280156120e85781602001600182028036833780820191505090505b509050600082602001820190505b600115612155578080600190039150507f3031323334353637383961626364656600000000000000000000000000000000600a86061a8153600a858161213f5761213e6134d3565b5b049450600085141561215057612155565b6120f6565b819350505050919050565b61216a8383612331565b6121776000848484611ef1565b6121b6576040517f08c379a00000000000000000000000000000000000000000000000000000000081526004016121ad906137ca565b60405180910390fd5b505050565b6000808273ffffffffffffffffffffffffffffffffffffffff163b119050919050565b600080600090507a184f03e93ff9f4daa797ed6e38ed64bf6a1f010000000000000000831061223c577a184f03e93ff9f4daa797ed6e38ed64bf6a1f0100000000000000008381612232576122316134d3565b5b0492506040810190505b6d04ee2d6d415b85acef81000000008310612279576d04ee2d6d415b85acef8100000000838161226f5761226e6134d3565b5b0492506020810190505b662386f26fc1000083106122a857662386f26fc10000838161229e5761229d6134d3565b5b0492506010810190505b6305f5e10083106122d1576305f5e10083816122c7576122c66134d3565b5b0492506008810190505b61271083106122f65761271083816122ec576122eb6134d3565b5b0492506004810190505b60648310612319576064838161230f5761230e6134d3565b5b0492506002810190505b600a8310612328576001810190505b80915050919050565b600073ffffffffffffffffffffffffffffffffffffffff168273ffffffffffffffffffffffffffffffffffffffff1614156123a1576040517f08c379a0000000000000000000000000000000000000000000000000000000008152600401612398906139ab565b60405180910390fd5b6123aa81611ddb565b156123ea576040517f08c379a00000000000000000000000000000000000000000000000000000000081526004016123e190613a17565b60405180910390fd5b6123f8600083836001611ee5565b61240181611ddb565b15612441576040517f08c379a000000000000000000000000000000000000000000000000000000000815260040161243890613a17565b60405180910390fd5b6001600360008473ffffffffffffffffffffffffffffffffffffffff1673ffffffffffffffffffffffffffffffffffffffff16815260200190815260200160002060008282540192505081905550816002600083815260200190815260200160002060006101000a81548173ffffffffffffffffffffffffffffffffffffffff021916908373ffffffffffffffffffffffffffffffffffffffff160217905550808273ffffffffffffffffffffffffffffffffffffffff16600073ffffffffffffffffffffffffffffffffffffffff167fddf252ad1be2c89b69c2b068fc378daa952ba7f163c4a11628f55a4df523b3ef60405160405180910390a461254b600083836001611eeb565b5050565b6040518060600160405280600390602082028036833780820191505090505090565b82805461257d90612e82565b90600052602060002090601f01602090048101928261259f57600085556125e6565b82601f106125b857805160ff19168380011785556125e6565b828001600101855582156125e6579182015b828111156125e55782518255916020019190600101906125ca565b5b5090506125f391906125f7565b5090565b5b808211156126105760008160009055506001016125f8565b5090565b6000604051905090565b600080fd5b600080fd5b60007fffffffff0000000000000000000000000000000000000000000000000000000082169050919050565b61265d81612628565b811461266857600080fd5b50565b60008135905061267a81612654565b92915050565b6000602082840312156126965761269561261e565b5b60006126a48482850161266b565b91505092915050565b60008115159050919050565b6126c2816126ad565b82525050565b60006020820190506126dd60008301846126b9565b92915050565b600081519050919050565b600082825260208201905092915050565b60005b8381101561271d578082015181840152602081019050612702565b8381111561272c576000848401525b50505050565b6000601f19601f8301169050919050565b600061274e826126e3565b61275881856126ee565b93506127688185602086016126ff565b61277181612732565b840191505092915050565b600060208201905081810360008301526127968184612743565b905092915050565b6000819050919050565b6127b18161279e565b81146127bc57600080fd5b50565b6000813590506127ce816127a8565b92915050565b6000602082840312156127ea576127e961261e565b5b60006127f8848285016127bf565b91505092915050565b600073ffffffffffffffffffffffffffffffffffffffff82169050919050565b600061282c82612801565b9050919050565b61283c81612821565b82525050565b60006020820190506128576000830184612833565b92915050565b61286681612821565b811461287157600080fd5b50565b6000813590506128838161285d565b92915050565b600080604083850312156128a05761289f61261e565b5b60006128ae85828601612874565b92505060206128bf858286016127bf565b9150509250929050565b600080fd5b7f4e487b7100000000000000000000000000000000000000000000000000000000600052604160045260246000fd5b61290682612732565b810181811067ffffffffffffffff82111715612925576129246128ce565b5b80604052505050565b6000612938612614565b905061294482826128fd565b919050565b600067ffffffffffffffff821115612964576129636128ce565b5b602082029050602081019050919050565b600080fd5b600061298d61298884612949565b61292e565b905080838252602082019050602084028301858111156129b0576129af612975565b5b835b818110156129d957806129c588826127bf565b8452602084019350506020810190506129b2565b5050509392505050565b600082601f8301126129f8576129f76128c9565b5b8135612a0884826020860161297a565b91505092915050565b60008060408385031215612a2857612a2761261e565b5b6000612a36858286016127bf565b925050602083013567ffffffffffffffff811115612a5757612a56612623565b5b612a63858286016129e3565b9150509250929050565b600080600060608486031215612a8657612a8561261e565b5b6000612a9486828701612874565b9350506020612aa586828701612874565b9250506040612ab6868287016127bf565b9150509250925092565b600060039050919050565b600081905092915050565b6000819050919050565b612ae98161279e565b82525050565b6000612afb8383612ae0565b60208301905092915050565b6000602082019050919050565b612b1d81612ac0565b612b278184612acb565b9250612b3282612ad6565b8060005b83811015612b63578151612b4a8782612aef565b9650612b5583612b07565b925050600181019050612b36565b505050505050565b6000606082019050612b806000830184612b14565b92915050565b612b8f8161279e565b82525050565b6000602082019050612baa6000830184612b86565b92915050565b600060208284031215612bc657612bc561261e565b5b6000612bd484828501612874565b91505092915050565b612be6816126ad565b8114612bf157600080fd5b50565b600081359050612c0381612bdd565b92915050565b60008060408385031215612c2057612c1f61261e565b5b6000612c2e85828601612874565b9250506020612c3f85828601612bf4565b9150509250929050565b7f4e487b7100000000000000000000000000000000000000000000000000000000600052602160045260246000fd5b60038110612c8957612c88612c49565b5b50565b6000819050612c9a82612c78565b919050565b6000612caa82612c8c565b9050919050565b612cba81612c9f565b82525050565b6000602082019050612cd56000830184612cb1565b92915050565b600080fd5b600067ffffffffffffffff821115612cfb57612cfa6128ce565b5b612d0482612732565b9050602081019050919050565b82818337600083830152505050565b6000612d33612d2e84612ce0565b61292e565b905082815260208101848484011115612d4f57612d4e612cdb565b5b612d5a848285612d11565b509392505050565b600082601f830112612d7757612d766128c9565b5b8135612d87848260208601612d20565b91505092915050565b60008060008060808587031215612daa57612da961261e565b5b6000612db887828801612874565b9450506020612dc987828801612874565b9350506040612dda878288016127bf565b925050606085013567ffffffffffffffff811115612dfb57612dfa612623565b5b612e0787828801612d62565b91505092959194509250565b60008060408385031215612e2a57612e2961261e565b5b6000612e3885828601612874565b9250506020612e4985828601612874565b9150509250929050565b7f4e487b7100000000000000000000000000000000000000000000000000000000600052602260045260246000fd5b60006002820490506001821680612e9a57607f821691505b60208210811415612eae57612ead612e53565b5b50919050565b7f4552433732313a20617070726f76616c20746f2063757272656e74206f776e6560008201527f7200000000000000000000000000000000000000000000000000000000000000602082015250565b6000612f106021836126ee565b9150612f1b82612eb4565b604082019050919050565b60006020820190508181036000830152612f3f81612f03565b9050919050565b7f4552433732313a20617070726f76652063616c6c6572206973206e6f7420746f60008201527f6b656e206f776e6572206f7220617070726f76656420666f7220616c6c000000602082015250565b6000612fa2603d836126ee565b9150612fad82612f46565b604082019050919050565b60006020820190508181036000830152612fd181612f95565b9050919050565b6000604082019050612fed6000830185612833565b612ffa6020830184612833565b9392505050565b7f4552433732313a2063616c6c6572206973206e6f7420746f6b656e206f776e6560008201527f72206f7220617070726f76656400000000000000000000000000000000000000602082015250565b600061305d602d836126ee565b915061306882613001565b604082019050919050565b6000602082019050818103600083015261308c81613050565b9050919050565b7f4e487b7100000000000000000000000000000000000000000000000000000000600052603260045260246000fd5b600081905092915050565b50565b60006130dd6000836130c2565b91506130e8826130cd565b600082019050919050565b60006130fe826130d0565b9150819050919050565b7f4552433732313a20696e76616c696420746f6b656e2049440000000000000000600082015250565b600061313e6018836126ee565b915061314982613108565b602082019050919050565b6000602082019050818103600083015261316d81613131565b9050919050565b7f4552433732313a2061646472657373207a65726f206973206e6f74206120766160008201527f6c6964206f776e65720000000000000000000000000000000000000000000000602082015250565b60006131d06029836126ee565b91506131db82613174565b604082019050919050565b600060208201905081810360008301526131ff816131c3565b9050919050565b7f4e487b7100000000000000000000000000000000000000000000000000000000600052601160045260246000fd5b60006132408261279e565b915061324b8361279e565b9250827fffffffffffffffffffffffffffffffffffffffffffffffffffffffffffffffff038211156132805761327f613206565b5b828201905092915050565b60006132968261279e565b91507fffffffffffffffffffffffffffffffffffffffffffffffffffffffffffffffff8214156132c9576132c8613206565b5b600182019050919050565b6000819050919050565b6132e7816132d4565b82525050565b600067ffffffffffffffff82169050919050565b61330a816132ed565b82525050565b600061ffff82169050919050565b61332781613310565b82525050565b600063ffffffff82169050919050565b6133468161332d565b82525050565b600060a08201905061336160008301886132de565b61336e6020830187613301565b61337b604083018661331e565b613388606083018561333d565b613395608083018461333d565b9695505050505050565b6000815190506133ae816127a8565b92915050565b6000602082840312156133ca576133c961261e565b5b60006133d88482850161339f565b91505092915050565b600081905092915050565b60006133f7826126e3565b61340181856133e1565b93506134118185602086016126ff565b80840191505092915050565b600061342982856133ec565b915061343582846133ec565b91508190509392505050565b7f4f776e61626c653a206e6577206f776e657220697320746865207a65726f206160008201527f6464726573730000000000000000000000000000000000000000000000000000602082015250565b600061349d6026836126ee565b91506134a882613441565b604082019050919050565b600060208201905081810360008301526134cc81613490565b9050919050565b7f4e487b7100000000000000000000000000000000000000000000000000000000600052601260045260246000fd5b600061350d8261279e565b91506135188361279e565b925082613528576135276134d3565b5b828206905092915050565b60006040820190506135486000830185612cb1565b6135556020830184612833565b9392505050565b7f4552433732313a207472616e736665722066726f6d20696e636f72726563742060008201527f6f776e6572000000000000000000000000000000000000000000000000000000602082015250565b60006135b86025836126ee565b91506135c38261355c565b604082019050919050565b600060208201905081810360008301526135e7816135ab565b9050919050565b7f4552433732313a207472616e7366657220746f20746865207a65726f2061646460008201527f7265737300000000000000000000000000000000000000000000000000000000602082015250565b600061364a6024836126ee565b9150613655826135ee565b604082019050919050565b600060208201905081810360008301526136798161363d565b9050919050565b7f4f776e61626c653a2063616c6c6572206973206e6f7420746865206f776e6572600082015250565b60006136b66020836126ee565b91506136c182613680565b602082019050919050565b600060208201905081810360008301526136e5816136a9565b9050919050565b7f4552433732313a20617070726f766520746f2063616c6c657200000000000000600082015250565b60006137226019836126ee565b915061372d826136ec565b602082019050919050565b6000602082019050818103600083015261375181613715565b9050919050565b7f4552433732313a207472616e7366657220746f206e6f6e20455243373231526560008201527f63656976657220696d706c656d656e7465720000000000000000000000000000602082015250565b60006137b46032836126ee565b91506137bf82613758565b604082019050919050565b600060208201905081810360008301526137e3816137a7565b9050919050565b7f45524337323155524953746f726167653a2055524920736574206f66206e6f6e60008201527f6578697374656e7420746f6b656e000000000000000000000000000000000000602082015250565b6000613846602e836126ee565b9150613851826137ea565b604082019050919050565b6000602082019050818103600083015261387581613839565b9050919050565b600081519050919050565b600082825260208201905092915050565b60006138a38261387c565b6138ad8185613887565b93506138bd8185602086016126ff565b6138c681612732565b840191505092915050565b60006080820190506138e66000830187612833565b6138f36020830186612833565b6139006040830185612b86565b81810360608301526139128184613898565b905095945050505050565b60008151905061392c81612654565b92915050565b6000602082840312156139485761394761261e565b5b60006139568482850161391d565b91505092915050565b7f4552433732313a206d696e7420746f20746865207a65726f2061646472657373600082015250565b60006139956020836126ee565b91506139a08261395f565b602082019050919050565b600060208201905081810360008301526139c481613988565b9050919050565b7f4552433732313a20746f6b656e20616c7265616479206d696e74656400000000600082015250565b6000613a01601c836126ee565b9150613a0c826139cb565b602082019050919050565b60006020820190508181036000830152613a30816139f4565b905091905056fea2646970667358221220f248c64f3da76f5adf91437cbff133dca0fbbec89ebef44c7905e65f9021759364736f6c63430008080033",
  "linkReferences": {},
  "deployedLinkReferences": {}
}